:100000003EC0000061C000005FC000005DC0000095
:100010005BC0000059C0000057C0000055C0000080
:1000200053C0000051C000004FC000004DC0000090
:100030004BC0000049C0000047C0000045C00000A0
:1000400043C0000041C000003FC000003DC00000B0
:10005000B0C00000D1C0000037C0000035C00000B3
:1000600033C0000031C000002FC000002DC00000D0
:100070002BC0000029C0000027C00000110211247D
:100080001FBECFEFD0E1DEBFCDBF11E0A0E0B1E0F9
:10009000EEECF6E002C005900D92A234B107D9F75C
:1000A00021E0A2E4B1E001C01D92AC36B207E1F755
:1000B00010E0CEE7D0E003C02297FE01DBD1CC37C1
:1000C000D107D1F76DD101C39BCFFB0120813181D5
:1000D00040E050E060E472E48FE090E0A7D121506E
:1000E00031093093C5002093C400E1ECF0E088E1D1
:1000F000808386E08093C200808188698083089530
:10010000CF93DF9300D0CDB7DEB77A836983BE018A
:100110006F5F7F4FDADF0F900F90DF91CF910895DF
:10012000809144018F5F8F70909143018917E1F3B3
:10013000E82FF0E0EB5BFE4F6083809344018091F9
:10014000C10080628093C1000895809156018F5F45
:100150008F7090915501891759F080935601E09165
:100160005601F0E08091C600E95AFE4F8083089561
:1001700081E0809342018091C600089590914301EF
:1001800080914401981779F0809143018F5F8F70BF
:1001900080934301E0914301F0E0EB5BFE4F8081EF
:1001A0008093C60008958091C1008F7D8093C10027
:1001B00008951F920F920FB60F9211242F933F9321
:1001C0004F935F936F937F938F939F93AF93BF935F
:1001D000EF93FF93BADFFF91EF91BF91AF919F91A2
:1001E0008F917F916F915F914F913F912F910F90E0
:1001F0000FBE0F901F9018951F920F920FB60F927F
:1002000011242F933F934F935F936F937F938F931B
:100210009F93AF93BF93EF93FF93B0DFFF91EF9165
:10022000BF91AF919F918F917F916F915F914F910E
:100230003F912F910F900FBE0F901F9018950F9A1E
:100240000E9A0D9A0C9A08950F980E980D980C9886
:10025000089580FF02C0149A01C0149881FF02C063
:10026000159A01C0159882FF02C0169A01C016980F
:1002700083FF02C0179A08951798089580B1829558
:100280008170059982600699846007998860089555
:10029000CF93DADF119A139AF1DFC82FC295C07F8E
:1002A0001398139AEBDF13988C2BCF910895129823
:1002B000EFCF1F93CF93DF93EC01162FC0DF119880
:1002C000139A812F82958F70C4DF1398139A812F10
:1002D000C0DF1398CE01EBDF87FDFCCFDF91CF911C
:1002E0001F9108951298E5CF61E0FCCFCF93DF9383
:1002F000EC01A5DF0A9A0B9A099A129A139A119A9D
:100300008FE59AEE0197F1F700C00000139812985C
:100310001198139A83E09DDF13988FE090E4019782
:10032000F1F700C00000139A83E093DF13988FE881
:1003300091E00197F1F700C00000139A83E089DF94
:1003400013988FE891E00197F1F700C00000139A2D
:1003500082E07FDF13988FE891E00197F1F700C00A
:10036000000068E2CE01BEDF68E0CE01BBDF6CE0DA
:10037000CE01B8DF66E0CE01B5DFCE01DF91CF91CF
:10038000B3CFCF93DF93EC01B1DFCE01ADDF8FE3CD
:100390009CE90197F1F700C00000DF91CF9108952B
:1003A000CF93DF93CDB7DEB767970FB6F894DEBF74
:1003B0000FBECDBF81E090E061D0E3DF81E090E04F
:1003C0005DD07C0160E875E29BDE209A289A7894E3
:1003D00087E1A82E6E0128E1C20ED11CBB24B39484
:1003E000EBE2F1E0DE0111968A2D01900D928A95E3
:1003F000E1F78E010F5F1F4FF80161918F01C70177
:100400008FDE0C151D05C1F785B18B2585B9FFEF72
:1004100023ED80E3F15020408040E1F700C0000070
:10042000DFCF8091670180932A010895A1E21A2EFF
:10043000AA1BBB1BFD010DC0AA1FBB1FEE1FFF1F88
:10044000A217B307E407F50720F0A21BB30BE40BD8
:10045000F50B661F771F881F991F1A9469F760951F
:100460007095809590959B01AC01BD01CF010895D9
:10047000EE0FFF1F0590F491E02D0994CF93DF93C9
:100480008230910510F482E090E0E0916A01F091F1
:100490006B0120E030E0A0E0B0E0309739F140811E
:1004A000518148175907B8F04817590771F48281EC
:1004B0009381109729F013969C938E9312972CC0DA
:1004C00090936B0180936A0127C02115310531F0AB
:1004D0004217530718F0A901DB0101C0EF019A018F
:1004E000BD01DF010280F381E02DD7CF2115310559
:1004F000F9F0281B390B2430310580F48A819B8167
:100500006115710521F0FB019383828304C09093F0
:100510006B0180936A01FE01329644C0FE01E20F36
:10052000F31F8193919322503109398328833AC074
:100530002091680130916901232B41F4209102013F
:1005400030910301309369012093680120910001EB
:10055000309101012115310541F42DB73EB740918D
:10056000040150910501241B350BE0916801F091C5
:100570006901E217F307A0F42E1B3F0B2817390778
:1005800078F0AC014E5F5F4F2417350748F04E0FEF
:100590005F1F50936901409368018193919302C05A
:1005A000E0E0F0E0CF01DF91CF910895CF93DF93AA
:1005B000009709F487C0FC01329713821282C09120
:1005C0006A01D0916B01209781F420813181280F3D
:1005D000391F80916801909169018217930779F51D
:1005E000F0936901E09368016DC0DE0120E030E026
:1005F000AE17BF0750F412964D915C9113979D0171
:100600004115510509F1DA01F3CFB383A28340818B
:100610005181840F951F8A179B0771F48D919C91CE
:100620001197840F951F02969183808312968D9166
:100630009C911397938382832115310529F4F093BC
:100640006B01E0936A013EC0D9011396FC93EE93CF
:1006500012974D915D91A40FB51FEA17FB0779F42E
:1006600080819181840F951F0296D90111969C93E8
:100670008E938281938113969C938E931297E0E0E0
:10068000F0E08A819B81009719F0FE01EC01F9CF1F
:10069000CE01029628813981820F931F2091680133
:1006A000309169012817390769F4309729F41092BD
:1006B0006B0110926A0102C013821282D093690109
:0E06C000C0936801DF91CF910895F894FFCFA9
:1006CE0000006C012000F505030574657374206647
:1006DE0072616D65207570202031746573742066AB
:1006EE0072616D6520646F776E3200736F6D652079
:1006FE007368697420746573742064617461200A70
:02070E000D00DC
:00000001FF
